:020000040000fa
:080000000002040000000000f2
:020000040000fa
:040008007a03000077
:020000040000fa
:04000c007a03000073
:020000040000fa
:040010007a0300006f
:020000040000fa
:040014007a0300006b
:020000040000fa
:040018007a03000067
:020000040000fa
:04001c007a03000063
:020000040000fa
:040020007a0300005f
:020000040000fa
:040024007a0300005b
:020000040000fa
:040028007a03000057
:020000040000fa
:04002c007a03000053
:020000040000fa
:040030007a0300004f
:020000040000fa
:04003400360300008f
:020000040000fa
:040038007a03000047
:020000040000fa
:04003c007a03000043
:020000040000fa
:040040007a0300003f
:020000040000fa
:04004400e8020000ce
:020000040000fa
:040048007a03000037
:020000040000fa
:04004c007a03000033
:020000040000fa
:040050007a0300002f
:020000040000fa
:040054007a0300002b
:020000040000fa
:040058007a03000027
:020000040000fa
:04005c007a03000023
:020000040000fa
:040060007a0300001f
:020000040000fa
:040064007a0300001b
:020000040000fa
:040068007a03000017
:020000040000fa
:04006c007a03000013
:020000040000fa
:040070007a0300000f
:020000040000fa
:040074007a0300000b
:020000040000fa
:04007800640300001d
:020000040000fa
:04007c007a03000003
:020000040000fa
:040080007a030000ff
:020000040000fa
:040084007a030000fb
:020000040000fa
:040088007a030000f7
:020000040000fa
:04008c007a030000f3
:020000040000fa
:040090007a030000ef
:020000040000fa
:040094007a030000eb
:020000040000fa
:040098007a030000e7
:020000040000fa
:04009c007a030000e3
:020000040000fa
:0400a0007a030000df
:020000040000fa
:0400a4007a030000db
:020000040000fa
:0400a8007a030000d7
:020000040000fa
:0400ac007a030000d3
:020000040000fa
:0400b0007a030000cf
:020000040000fa
:0400b4007a030000cb
:020000040000fa
:0400b8007a030000c7
:020000040000fa
:0400bc007a030000c3
:020000040000fa
:0400c0007a030000bf
:020000040000fa
:0400c4007a030000bb
:020000040000fa
:0400c8007a030000b7
:020000040000fa
:0400cc007a030000b3
:020000040000fa
:0400d0007a030000af
:020000040000fa
:0400d4007a030000ab
:020000040000fa
:0400d8007a030000a7
:020000040000fa
:0400dc007a030000a3
:020000040000fa
:0400e0007a0300009f
:020000040000fa
:0400e4007a0300009b
:020000040000fa
:0400e8007a03000097
:020000040000fa
:0400ec007a03000093
:020000040000fa
:0400f0007a0300008f
:020000040000fa
:0400f4007a0300008b
:020000040000fa
:0400f8007a03000087
:020000040000fa
:0400fc007a03000083
:020000040000fa
:040100007a0300007e
:020000040000fa
:040104007a0300007a
:020000040000fa
:040108007a03000076
:020000040000fa
:04010c007a03000072
:020000040000fa
:040110007a0300006e
:020000040000fa
:040114007a0300006a
:020000040000fa
:040118007a03000066
:020000040000fa
:04011c007a03000062
:020000040000fa
:040120007a0300005e
:020000040000fa
:040124007a0300005a
:020000040000fa
:040128007a03000056
:020000040000fa
:04012c007a03000052
:020000040000fa
:040130007a0300004e
:020000040000fa
:040134007a0300004a
:020000040000fa
:040138007a03000046
:020000040000fa
:04013c007a03000042
:020000040000fa
:040140007a0300003e
:020000040000fa
:040144007a0300003a
:020000040000fa
:040208007a03000075
:020000040000fa
:04020c007a03000071
:020000040000fa
:040210007a0300006d
:020000040000fa
:040214007a03000069
:020000040000fa
:040218007a03000065
:020000040000fa
:04021c007a03000061
:020000040000fa
:040220007a0300005d
:020000040000fa
:040224007a03000059
:020000040000fa
:040228007a03000055
:020000040000fa
:04022c007a03000051
:020000040000fa
:040230007a0300004d
:020000040000fa
:04023400360300008d
:020000040000fa
:040238007a03000045
:020000040000fa
:04023c007a03000041
:020000040000fa
:040240007a0300003d
:020000040000fa
:04024400e8020000cc
:020000040000fa
:040248007a03000035
:020000040000fa
:04024c007a03000031
:020000040000fa
:040250007a0300002d
:020000040000fa
:040254007a03000029
:020000040000fa
:040258007a03000025
:020000040000fa
:04025c007a03000021
:020000040000fa
:040260007a0300001d
:020000040000fa
:040264007a03000019
:020000040000fa
:040268007a03000015
:020000040000fa
:04026c007a03000011
:020000040000fa
:040270007a0300000d
:020000040000fa
:040274007a03000009
:020000040000fa
:04027800640300001b
:020000040000fa
:04027c007a03000001
:020000040000fa
:040280007a030000fd
:020000040000fa
:040284007a030000f9
:020000040000fa
:040288007a030000f5
:020000040000fa
:04028c007a030000f1
:020000040000fa
:040290007a030000ed
:020000040000fa
:040294007a030000e9
:020000040000fa
:040298007a030000e5
:020000040000fa
:04029c007a030000e1
:020000040000fa
:0402a0007a030000dd
:020000040000fa
:0402a4007a030000d9
:020000040000fa
:0402a8007a030000d5
:020000040000fa
:0402ac007a030000d1
:020000040000fa
:0402b0007a030000cd
:020000040000fa
:0402b4007a030000c9
:020000040000fa
:0402b8007a030000c5
:020000040000fa
:0402bc007a030000c1
:020000040000fa
:0402c0007a030000bd
:020000040000fa
:0402c4007a030000b9
:020000040000fa
:0402c8007a030000b5
:020000040000fa
:0402cc007a030000b1
:020000040000fa
:0402d0007a030000ad
:020000040000fa
:0402d4007a030000a9
:020000040000fa
:0402d8007a030000a5
:020000040000fa
:0402dc007a030000a1
:020000040000fa
:0402e0007a0300009d
:020000040000fa
:0402e4007a03000099
:020000040000fa
:0402e8007a03000095
:020000040000fa
:0402ec007a03000091
:020000040000fa
:0402f0007a0300008d
:020000040000fa
:0402f4007a03000089
:020000040000fa
:0402f8007a03000085
:020000040000fa
:0402fc007a03000081
:020000040000fa
:040300007a0300007c
:020000040000fa
:040304007a03000078
:020000040000fa
:040308007a03000074
:020000040000fa
:04030c007a03000070
:020000040000fa
:040310007a0300006c
:020000040000fa
:040314007a03000068
:020000040000fa
:040318007a03000064
:020000040000fa
:04031c007a03000060
:020000040000fa
:040320007a0300005c
:020000040000fa
:040324007a03000058
:020000040000fa
:040328007a03000054
:020000040000fa
:04032c007a03000050
:020000040000fa
:040330007a0300004c
:020000040000fa
:040334007a03000048
:020000040000fa
:040338007a03000044
:020000040000fa
:04033c007a03000040
:020000040000fa
:040340007a0300003c
:020000040000fa
:040344007a03000038
:020000040000fa
:100400008f8d20000eff27000e01880000000000e5
:10041000000020000000e000020032000001200087
:10042000200288000e0007008084210001002000c7
:10043000810f700001003200220007000000200040
:100440000000e00002003200000002000000000096
:100450003c170200000000000040da000000fe002f
:100460004440a900a00020000000e000030032008a
:1004700000002000a00188004440a8000000060001
:10048000f03fb1000180b10006003500ee03090025
:1004900000000000403fb1000180b100fbff3d00c3
:1004a0001000b000203fb0000200350000800900bd
:1004b00000000000000006008a1f78008b1f7800f3
:1004c0000000060091018800800478000000eb0025
:1004d0001a003700e284440032a0b4009905ba0043
:1004e000e284440032a0b4009906ba00e2844400d9
:1004f00032a0b4000006eb00476fde00fd07b2003b
:10050000636ce10003003a00ebff07000000eb0022
:100510000a003700606ce10004003a00005deb0067
:100520008b05e900fdff3e00040037006168e10033
:10053000010032000086eb000b00070019c7ba006b
:100540001905ba000e04e00003003a000a00e000ba
:10055000e0ff3a0000000600fe07b2009e0188009e
:100560008a047800f5ff3700395dba008b05e90091
:100570000c003200295dba008b05e900080032004a
:100580000c00e00003003a00e284440032a0b40012
:10059000f5ff370019ddba008b05e900faff3a00d4
:1005a0008904e800e184440032a0b40000000600a1
:1005b0007e03040000000000c804040000000000e6
:1005c000360d0400000000000000040000000000e0
:1005d000809fbe003400f80000002000a0018800c9
:1005e0000000fa00004080000000e80000408800a1
:1005f00020408000800078000120a20001f0a700c8
:100600008100ea008100e900cf08de008140780027
:100610000000e800204088000104e0000e003200e5
:100620000428ef0010408000610010001040880096
:10063000104080000000e00004003200c282a800e8
:10064000000000000000000003003700c282a90083
:10065000000000000000000084e0a9000080fa0013
:100660003400f9004f00be0000400600801f7800f3
:100670003400f80000002000a00188000000fa000b
:100680003040800061001000304088003040800021
:100690000000e00004003200c2a2a8000000000038
:1006a0000000000003003700c2a2a9000000000003
:1006b000000000008460a9000080fa003400f90006
:1006c0004f007800004006003400f800881f7800d2
:1006d00008002000a80188004f0478000000fa00fc
:1006e0000028ef008680a9000080fa003400f9009d
:1006f000004006000040da000000fe00889fbe00b7
:1007000000047800010078008204780088017800f5
:10071000090178001100200049000700890f5000ee
:10072000010032000004eb00080078004f04be0016
:10073000000006000000fa00e88157004fb997005a
:1007400001832000e03720005b0107000080fa00f1
:1007500000000600889fbe008a1f78000004780011
:100760000800e0000d003a00e88720007005440012
:100770008004eb00580078000000e0000400320024
:10078000f4ff07000000e00001003d008084eb0062
:100790008a0f5400f7ff3a002500370000002200be
:1007a000180060008004eb0021003200a8049000d3
:1007b0000f00370009015100384090000000fb0095
:1007c000890078002d0607000000e00007003c00cb
:1007d000280090004004980060049800500c980095
:1007e0001890a0008084eb00110037008084440042
:1007f00048019000828f5400eeff390028009000dd
:10080000400498009800780002c020000281600037
:1008100001003a003800900001e8a3000200320015
:100820006004980001003700500c98008004eb0031
:10083000090078004f0578004f04be000000060054
:10084000889fbe008a9fbe008c9fbe008e1f7800ce
:100850000006780001047800020078008304780024
:100860000881b900020778000200e000420032006f
:100870000800e0004100320082057800c9009000c5
:1008800069009000808f5000040039000900780052
:100890000e0107000000e0002900350000402000a4
:1008a000190060000a0032000b017800a10020004e
:1008b0000c0078004c010700800678000d00e00075
:1008c00006003200610516000a8546000400370064
:1008d0000b0578008006eb00010037000b0578005f
:1008e00049009000e9009000808050008a8f5000fd
:1008f00002003100010578008006eb000a01780053
:100900008c007800420107008a855500490090005c
:100910000a004000c00498000d00e000040032000e
:10092000090078008bff07000000e00004003a0097
:100930000b00e000020032000a064600cfff37003d
:1009400000802000190060000200320009007800d9
:1009500080ff070000c02000190060000200320084
:1009600049009000e00498008b0557001100090031
:100970008885d800010037000000eb004f077800a1
:100980004f06be004f05be004f04be00000006002b
:10099000889fbe00000478000203be008104780036
:1009a0000802780089017800120020000600be00cd
:1009b0001e010700890f5000010032000004eb0007
:1009c000080078004f04be00000006006800fa002e
:1009d000889fbe008a9fbe008004780001047800d2
:1009e00082057800030578008400780000f92f0064
:1009f0000f00400079010700d98f9f00fb8f9f00f7
:100a00000000eb00a09f9f00e88f9f009a84fb00ee
:100a10000904fb008904ea00cf4cde0050022000ec
:100a2000800f54000d003200e18f54000b003a009b
:100a3000090178008a0078007f889700df89970095
:100a400003000100f08f9f000000e00095003200dd
:100a50002f9897000000e800a09f9f00090545001f
:100a600050022000800f5400040032000800e00013
:100a7000e6ff3a002f9897008b0037000000eb004c
:100a8000809f9f00f0979f00e0979f00d0979f0066
:100a9000c0979f00b0979f0007003700618c20002f
:100aa0000100500000004000a18b20006100780090
:100ab000cf98970001007000c09f9f000a04780043
:100ac00008057800ba4478008900fb00608c20009b
:100ad000440107000000e000f0ff3a00a1c2b300ab
:100ae00081cf54000e003a008f8897000180e90002
:100af000808f9f0010007800b09f9f000000e000f2
:100b000005003d000000ea00b09f9f004f9897004d
:100b10000020a000c09f9f000804e80010003700dc
:100b2000b09f9f00880078000000eb0005003700b0
:100b3000f3ff2700830f5000020032006a02b90061
:100b40000400410001047800880078003101fb00b6
:100b50000203b100e90f5100f5ff3600b09f9f007e
:100b6000e0c2b300984f1000020032000080eb009a
:100b700019003700a0c2b300d84f100007003a0098
:100b80008f8897000180e900808f9f001000780017
:100b9000909f9f000804e800100037000000eb0061
:100ba000909f9f008800780005003700f3ff270022
:100bb000830f5000020032006a02b90004004100b5
:100bc00001047800880078003101fb000203b100c5
:100bd000e90f5100f5ff3600909f9f009844780080
:100be0008900fb00208b2000fe0007000000e000d1
:100bf000020032000804e800010037008044eb00e6
:100c0000a97f9f0080c6b30080cf540006003a0041
:100c100098cf140010003a0066405000a07f9f005b
:100c20000804e8000c003700c0c6b30080cf5400b1
:100c300009003a0098cf140007003a0067404000ce
:100c4000d84f100002003a006e40500001003700fb
:100c500010c7b300a07f9f001801fb00c3fb2f004b
:100c60008f81410001f92f008f80400020f92f0073
:100c70000f004000e70007000000e00009003a0014
:100c8000c1fb2f008f80400020f92f000f00400093
:100c9000f20107000000e000020035000805e8004e
:100ca0005aff37000080eb004f05be004f04be0026
:100cb0000080fa000000060003027800820178003c
:100cc00001017800814c200040ff3700889fbe0062
:100cd0008a1f780000047800c80090006801900026
:100ce0000000eb00828f50003c00390018007800b3
:100cf0002200290002016000e20f510007003200cb
:100d0000012020000000e000010035000120240047
:100d1000008c70000080eb003000370002002600dd
:100d200002006000820f500009003a003800900075
:100d3000808f5000060039000800780085fe07000b
:100d4000800078000080eb000100e00023003a0002
:100d50001805780000c020000000650018003a0067
:100d6000a80490006002200008004000808f54001a
:100d700013003a0000202000c5020700200498005c
:100d80000000e00005003a0029049800490498009a
:100d90008904e80039049800080037000a60a000c0
:100da0000a0c780040049800012020008080400058
:100db00031049800400c9800500c9800e0020700a5
:100dc00028009000500498003800900060049800bb
:100dd00000002600180c70000000eb004f057800a2
:100de0004f04be000000060003003700b0cf100023
:100df000050032000201e900800178000200e000f5
:100e0000faff3a0000000500030078000000060029
:100e10008001780002003700b15978000201e90032
:100e20000200e000fcff3a0000000600e6874700f1
:100e3000889fbe008a9fbe008c9fbe008e1f7800d8
:100e400082bf9f0004047800029ab900f4b79f00a3
:100e50000400e000590032000fb997000200e000e2
:100e6000570032000006be0004077800c80090005a
:100e700068009000808f500004003900080078005e
:100e800092ff07000000e0003b003500004020001a
:100e9000180060000a0032008e017800a2002000d5
:100ea0000c00be00b70407000005be0000807500fe
:100eb000070032008c0455008904e8000500370063
:100ec0008e0478000a0020000b002000010037008b
:100ed0008e047800480190006800900002005000e5
:100ee000890f500003003100800478000a002000c0
:100ef0000b0020006111b800828fd2008381d200e4
:100f0000090278000c00be00b90407000907570069
:100f10004800900009004000400498000a857500d0
:100f200004003200080078000afe07000000e0001c
:100f300011003a000e00e0000f0032006148b800d6
:100f4000808fd2008180d2000000780000f0a100e4
:100f50008c01d0000001d000028641004220a80090
:100f600081864e004200a9004220ae004200a80047
:100f70000c86d300bdff3700008020001800600001
:100f80000200320008007800f2fd070000c02000d7
:100f90001800600002003200c8019000630498004d
:100fa0007fb097000e0750000fb99700110009009d
:100fb0000287d80080017800010037008001eb0033
:100fc000030078004f0778004f06be004f05be00b3
:100fd0004f04be006f00b100000006000108780059
:100fe00000000600020037000304e00006003200a3
:100ff0000001780002007800b041780081cf5100f4
:10100000f9ff3a00010037000001eb000200780010
:1010100000000600889fbe008a9fbe00e4c6b300a1
:10102000844f5100be00320010003c006b42520061
:10103000844f51001800320005003c0054c2b30038
:10104000844f5100f600320084c5b3000f00370012
:1010500044c6b300844f5100140032006542420080
:10106000844f5100f1003a001000370004c7b3006c
:10107000844f5100dd0032005600350065424200c9
:10108000844f51005300320063424200844f5100ac
:10109000e6003a004f0037001181e900820878002d
:1010a000a008900012417800de003700006a90002e
:1010b000c5c6b300854f520007003a009102780080
:1010c00064825200840878001402be004fabde0038
:1010d000860378001400370015c7b300854f52000f
:1010e00003003a001104780068025400050037003c
:1010f000a5c6b300854f520006003a00910478005f
:1011000068825400840878005403be004402be0084
:10111000050037001182e900840878001402780085
:10112000cfa2de00612bb9000498be000690be007d
:101130008068900088c6b30088cf50000d00320050
:1011400028c6b30088cf500004003a000402fb0018
:10115000cfa2de00612bb9000800370048c7b300fa
:1011600088cf5000030032006644440088cf50000e
:1011700004003a00cfa2de00612bb9000498be0043
:101180000690be003002be002003be00a008900002
:10119000e00f5200e08f5a00e00f5b00e08f5b0031
:1011a00002003d00d4c2b3000800370030129000a6
:1011b0000418a30002003200b4c2b30003003700d9
:1011c0000408a3005100320004c2b30084f1780087
:1011d0004c003700006a9000c5c6b300854f52002e
:1011e00008003a0011057800640255008408780070
:1011f0001404be006055b8000802be000a03be0019
:101200001400370015c7b300854f520003003a00a1
:10121000910478006882540005003700a5c6b30029
:10122000854f520006003a0011057800680255000b
:10123000840878005403be004402be000500370055
:101240001182e90084087800140278008002eb0023
:101250006033b8000498be000690be00806890001d
:1012600088c6b30088cf50000d00320028c6b300f6
:1012700088cf500004003a000482fb008002eb009b
:101280006033b8000800370048c7b30088cf50006b
:10129000030032006644440088cf500004003a0046
:1012a0008002eb006033b8000498be000690be00d8
:1012b000b01090000138a300140032003002be00cc
:1012c0002003be00e00f5200e08f5a00e00f5b00e9
:1012d000e08f5b000d00320081c7b300814f5100e9
:1012e0000300320081c5b300814f510007003a006e
:1012f000a008900004c3b30084f178008100e800e6
:1013000082f178008100e80021089800a008900090
:101310008181410073009800824078003e003700d0
:1013200080699000c4c6b3001181e90084cf5100e8
:10133000220032000a003c006442520084cf510077
:101340002500320004c2e80084cf510013003200af
:101350006842520084cf51001e003a000a00370054
:1013600044c7b30084cf51001b00320066424200e4
:1013700084cf5100180032006942520084cf5100de
:1013800014003a00050037008208780092007800c7
:1013900020609000804878002c0037008208780098
:1013a0009200780010129000cfa2de00612bb900ed
:1013b0008498be008690be00240037008208780022
:1013c0009200780010119000cf91de008288be005c
:1013d0001e0037001181e900820878009200780031
:1013e0001010900080087800180037001181e90083
:1013f0008208780012027800cfa2de00612bb900cb
:101400000498be000690be00a008900081814100b3
:101410007300980081c7b3009f0107000b003700dd
:10142000a008900082f1780006003700a008900024
:10143000818141000204e00001003a0052c2b30081
:10144000824978008100e800210898000000eb0044
:101450004f05be004f04be00000006000400fa0065
:10146000889fbe008a9fbe008c1f78000004780011
:1014700001067800a8149000280890008084540089
:1014800038089000808454004808900080845400fc
:1014900058089000808454006808900080845400ac
:1014a00078089000808454000002220090bf9f00c2
:1014b00000032300a0bf9f00381090000028a30065
:1014c00015003a000900e000130034000905780017
:1014d0008a057800e20f5500010036002b0020003d
:1014e000c80190000b017800ee8057006800900062
:1014f00003000100600498000000e000aa00320030
:10150000181090000b004000101498000b055500b7
:101510004240a900eeff3c00280990000200e000d4
:101520000c003400c80190008c0078006800900026
:1015300003000100600498008080eb000000e000e0
:101540009a00320098109000280890000080400017
:1015500010149800380d90000a00e00011003400cb
:101560008a057800e20f5500010036002b002000ac
:10157000c80190000b017800ec80570068009000d3
:1015800003000100600498000000e00086003200c3
:10159000181090000b004000101498000b05550027
:1015a000edff370008699000c808900050c6b300ee
:1015b000804f510008003a000100e000150034009f
:1015c0005802900008099000980990006800900067
:1015d00004000100070037000100e0000d003400a6
:1015e000c801900001017800f800900068009000a8
:1015f00003000100600498008080eb000000e00020
:101600006a00320098109000480890000080400066
:1016100010149800580d90000a00e00011003400ea
:101620008a057800e20f5500010036002b002000eb
:10163000c80190000b017800ec8057006800900012
:1016400003000100600498000000e0005600320032
:10165000181090000b004000101498000b05550066
:10166000edff3700086990006808900051c6b3008c
:10167000814f51000d003a000000e0001c003400d2
:1016800078019000c8089000010141006111b80084
:10169000828fd2008381d2005802900080007800af
:1016a0006800900004000100090037000000e0001d
:1016b0000f00340078019000c808900081004100bc
:1016c000c80190000001780068009000030001004c
:1016d000600498008080eb000000e00033003200de
:1016e0009810900068089000008040001014980046
:1016f000780d90000a00e000110034008a0578009f
:10170000e20f5500010036002b002000c8019000b8
:101710000b017800ec805700680090000300010086
:10172000600498000000e0001f00320018109000d4
:101730000b004000101498000b055500edff37001a
:10174000381090008000eb000028a3001700320042
:101750000900e0001500340009057800e28f54000c
:10176000010036002a002000c80190000a0178001c
:10177000ee805700680090000300010060049800ac
:101780000000e00008003200181090000a0040003d
:10179000101498008a8454004240a900eeff3c00d7
:1017a0008000eb00010037008080eb000100780032
:1017b0004f0678004f05be004f04be000080fa00bf
:1017c00000000600889fbe0000047800614680008b
:1017d0000100e00002003200010078000d00370037
:1017e00071468000e08c200004003700910f540007
:1017f000250036000180e800910090000100e00023
:10180000faff3a0010003700920f54001e00360015
:101810000280e800100178000200e000faff3a00c0
:101820001101780071468000e08c20000400370030
:10183000910f5400140036000180e80091009000e0
:10184000828f5000faff3a0099468000888f54003a
:10185000010031008804780009007800bd0107000c
:101860000000e00004003a00888f540005003200b8
:101870008904d100f5ff370009187800bf0107007f
:10188000d2ff37000000eb004f04be00000006004e
:10189000881f7800630440000800a1008000eb006e
:1018a000800f540021003600e30f540001003e0079
:1018b0004800200008007800c2ff07008000eb000d
:1018c0000000e000190032009000780091017800db
:1018d00064815100880f5100030031001101900014
:1018e00002087800070037000881400002087800ed
:1018f0009101900013019800100178001109140063
:1019000088087800100178000000eb000200e00079
:1019100004003200920190000300e0000100320058
:101920000280e800604688008180e80001007800bd
:101930004f0478000000060060d32000c10137008a
:10194000881f7800488d20001804e00003003a004a
:10195000f9ff070020c0b300004c78004f04780066
:1019600000000600889fbe00000478000800780090
:1019700078fb070080047800000420001800600055
:1019800002003200280090007c0107000000eb00fc
:1019900020049800384090000004e0000500350065
:1019a0000000fb00310207000000e00001003200ef
:1019b0008084eb00181090000000e0000800320066
:1019c000350207000000e000010032008084eb00d7
:1019d00018109000690107000000eb001014980037
:1019e00000082000180060000f003200e18720008e
:1019f0000000eb00d10f140005003a000000400089
:101a000001882000008040000008eb000300370040
:101a10000000e800e80f5000f6ff3a0008007800e8
:101a2000560107000e003700000c780000c0eb00e4
:101a30003044980060022000080040002004980014
:101a40004004980050049800400c980060049800ee
:101a5000500c98007004980076004400000c980028
:101a6000090078004f04be0000000600889fbe00f9
:101a700008892000f0045400480078000000e000cd
:101a800001003200b7ff0700890f5400faff3a0047
:101a90004f04be0000000600fc874700889fbe0080
:101aa0008a9fbe008c9fbe008e1f780000067800c3
:101ab00080c5b30080cf50000a003200774040005c
:101ac00080cf50000a0032006940400080cf5000b3
:101ad0000b003200108a200080bf9f00ae00200063
:101ae0000a0037000289200082bf9f0006003700ed
:101af000138a200083bf9f008e0020000300370060
:101b0000148a200084bf9f000e0120003c02be000a
:101b10002c03be000605be000404be0040c6b30090
:101b200080cf5000030032006540400080cf50005d
:101b30000b003a00e00f5200e08f5a00e00f5b000c
:101b4000e08f5b0006003d006000b8006011b80047
:101b50000404500085845800060559008785590003
:101b6000e80f57000400320040002000f00f57003b
:101b700038003a000100370030002000e00f540028
:101b8000e08f5c00e00f5d00e08f5d0004003a0034
:101b90008c1090008d0120000100e0000600320052
:101ba0008e00e900888060008fba9700e5c0780059
:101bb000f1ef9f007d012000800078008100e900a6
:101bc000050033008b05d1000a85d3008984d3003a
:101bd0000884d300f9ff3700089ebe000a96be00b5
:101be000120037008d06e9008e00e9008480600055
:101bf0000fb99700e2c1780082fd2f000f0141006c
:101c000003f17e00800078008100e90005003300c8
:101c10008783d1000683d3008582d3000482d3005a
:101c2000f9ff3700049ebe000696be003c02be00cf
:101c30002c03be00e00f5200e08f5a00e00f5b0063
:101c4000e08f5b008b0034000d00e000e5ff3c00fe
:101c5000880037000c68900081c6b300814f5000a7
:101c60000b00320006003c000004e00008003200d7
:101c7000e6c05000814f50004e003a00040037008b
:101c8000c1c6b300814f50004a003a00210037001e
:101c90000800e00004003a000c1090008d012000c4
:101ca0000000e00006003200110009000e84d80098
:101cb0000fb99700e2c07800f1ef9f007d0120008e
:101cc000110009000e84d8000a0037001100090035
:101cd0000e04d8008d06e9000e81b90002045400fc
:101ce0008fb8970061417c0081fd2f008f804000fc
:101cf00082f07e00000478000800e000020032005c
:101d00000d00e000f1ff3c00cfc4de00614db900e2
:101d100025003700e00f5400e08f5c0004003a001b
:101d20000c1090008d0120000000e0000700320040
:101d30006171b9000800be00810107008fb99700ea
:101d4000e3417800f3ef9f007d0120006171b9004d
:101d50000800be007d0107000b0037006171b9006b
:101d60000800be00890107008d06e90000f1b900f6
:101d7000020454000fba9700e4427c0084fd2f0057
:101d80000f02420005f27e000004be00e00f50008a
:101d9000e08f5800020032000d00e000efff3c0031
:101da0004fcdde008a057800089ebe000a96be0070
:101db00030003700e00f5400e08f5c00e00f5d0062
:101dc000e08f5d0004003a000c1090008d012000af
:101dd0000000e000090032006172b900612bb90017
:101de0000800be000a01be00e60107000fba970016
:101df00064427800f4ef9f007d0120006172b90019
:101e0000612bb9000800be000a01be00d601070020
:101e10000d0037006172b900612bb9000800be00e7
:101e20000a01be00db0107008d06e90000f2b900df
:101e3000040454008fba970065427c0085fd2f0092
:101e40008f82420084f27e00009ebe000296be0099
:101e50003c04be002c05be00e00f5400e08f5c0087
:101e6000e00f5d00e08f5d00020034000d00e00037
:101e7000e8ff3c00e80f570010003a003c109000cb
:101e80000038a3000d003200f78f560006003e0018
:101e900085fd2f008f824200e5c07e0000c3b300a5
:101ea00080cf5000050032008d06e90002c3b30068
:101eb00081fd2f008f80400082f07e007881160027
:101ec000420e98007c00900083fd2f008f8141001e
:101ed0008d804100cefb07004c0890008c109000d4
:101ee000810f500006003d0000805000300e980029
:101ef0003c1090000040a100301698000f00370001
:101f00000100e0000d003d00bc109000f480600076
:101f1000f08f500009003a002c119000ac0890009e
:101f2000810051003c0990008280500000805000e8
:101f30004240a90001003400300e98004f0778009d
:101f40004f06be004f05be004f04be00cf01b100da
:101f500000000600800078000000eb000100e000b7
:101f60000500340001007800d4000700e10f4000b4
:101f700001003a000000eb00000006000000e00055
:101f80002f003200c0017800e38f51002c00360092
:101f90000308a3002a003a00714680000100e00017
:101fa00002003200810f500004003100110098003f
:101fb00070468800160037008200780011019000fa
:101fc0000200e00002003200800f5100faff3900e9
:101fd0001102780084824000850f500018003900fb
:101fe000808f520003003a0083084200010078000d
:101ff000070037000200e0000300320083014000c8
:10200000830f51000e0039001200980090009800d4
:10201000900090000100e000090032001001400033
:10202000828f500006003a00c28c20000009eb00ad
:1020300010017800110841009100900011009800f3
:1020400000000600010020000100e000080032004e
:10205000010080000100e000050032008100e9007d
:1020600001008800818040000200800000b17800fb
:102070000000060000c0da00000006000a00fa00b6
:10208000e20f500034003e0080468000e10f500017
:1020900003003200e20f500011003a000c0037003c
:1020a000032220000300e00001003a000040da00b3
:1020b0002002e200020035002822ef0021e2a80001
:1020c0002342ab000d003a002342a8000b0037006a
:1020d000032320000300e00001003a000040da0082
:1020e0003002e200020035003822ef0031e2a800a1
:1020f0003342ab0001003a003342a800820178006d
:102100000b0037003102fb00e10f500004003a00e1
:102110002322ab00feff3a002411880003003700a1
:102120003322ab00feff3a00a41188008301e900ce
:102130000300e000f3ff3a00e10f500003003a0013
:102140002302ab00feff32000b0037003302ab006e
:10215000feff32000800370033002000b3bf9f00ad
:10216000c0bf9f00d1bf9f00e2bf9f006a805700a1
:10217000c0ff07006fb99700020078000080fa00e6
:10218000000006000300e00007003200a501800007
:10219000a101880010427800a50188000402fb001c
:1021a000820f5200110032008301e900a501800076
:1021b000a101880010427800a50188000404e00015
:1021c00008003200000278001000b00000026a002f
:1021d0004260af0000f0a0000482d2000180b00095
:1021e000e8ff37000000200001002000000006008a
:1021f0003400f8000203be00820270008502720003
:1022000002f0a60000f0a6008100e800a10188000d
:102210001500b20008003200105978000402e900ed
:102220000d00320061004000fbff39003420ec005b
:1022300000002800f8ff3700101978000482e90038
:102240000500320062004000fbff39003420ec0042
:1022500000002800f8ff37003400f9000601be0036
:102260000000060000c0da00000006000a00fa00c4
:1022700011002000b1bf9f00c0bf9f006a805700bf
:10228000f8ff07004fb897000080fa000000060032
:1022900000c0da00000006000a00fa005100200029
:1022a000b1bf9f00c0bf9f006a805700f8ff0700c2
:1022b0005fb897000080fa0000000600889fbe000b
:1022c00080047800b04680000000e00004003a007e
:1022d0000e0007000084eb000000e000080035005d
:1022e000b84680000900e000050032000900440003
:1022f000060007000000e00001003d000084eb0044
:10230000080078004f04be0000000600800078003e
:102310000100e00003003a0000002000b046880001
:10232000000005000080eb0002002000828f5000ba
:1023300002003e00b14688000000eb0000000600ed
:10234000020007000400be00000006006022b80082
:10235000060220000000d0008180d2000482d2005a
:102360008582d2000000a0000202520083825a003f
:10237000030031000202420083824a000000a100f3
:102380000603e900f3ff3a0000000600839f68009f
:102390000100e00002003d0060001000e080180035
:1023a0000300e00002003d0060011100e08119001f
:1023b000e6ff07004f00e00002003b006000100055
:1023c000e080180000000600889fbe008a9fbe00c3
:1023d00030044200b0844a0030054b0090854b0029
:1023e0006000b1000898be000a90be00c10007005e
:1023f00002003100680040001008e8004f05be00f0
:102400004f04be0000000600889fbe008a9fbe00e9
:102410003004be002005be000418540005985c007e
:1024200006185d0007985d0011002000b10007004c
:10243000010039008000eb00108810004f05be003d
:102440004f04be00000006001200fa00889fbe0084
:102450008a9fbe008c9fbe00e0b79f00f1b79f002f
:1024600082bf9f0093bf9f000605be000404be000c
:102470000000eb00d0b79f00c0b79f00b0b79f002f
:10248000a0b79f0090b79f00000678005fb197004b
:10249000cfb09700820141003fb097000200e000fa
:1024a00004003d00980007007e805700c6ff07002b
:1024b00003003700940007007e805700d2ff07001a
:1024c000dfb697000d00e0000c0035006fb29700fa
:1024d000ffb297000fbb97009fbb97001000200032
:1024e000010020006011b8000002720081827200b9
:1024f0000203730083837300580007000c06e80092
:1025000001042000810f5600e0ff3a000d00e000ba
:1025100004003d000802be000a03be007e80570092
:10252000a9ff07005fa897000000e00005003a003f
:102530001fb29700afb297003fb39700cfb3970099
:10254000460007006fb09700ffb097000fb99700e3
:102550009fb997004f06be004f05be004f04be0056
:102560000080fa0000000600881f78001800200094
:10257000881f7800b4ff07008f87e9004f047800b8
:1025800000000600801feb00afff07008f87e90007
:1025900000000600889fbe008a9fbe003d00070025
:1025a00007003d004000070018002000450007001c
:1025b00008003d002b0007000004eb000500370079
:1025c0000004eb003f00070002003d00250007006b
:1025d00018002000e4ff07000800e00001003200be
:1025e0003d0007004f05be004f04be00000006007e
:1025f000889fbe008a9fbe008c1f780025000700c0
:1026000008003d00280007001c0020000820e10011
:1026100009a8e1000ab0e1000bb8e10007003d00a5
:10262000050037000006eb002600070003003d0010
:102630006044b8006055b8000c000700d1ff0700e7
:102640000c00e00001003200230007004f06780074
:102650004f05be004f04be00000006000800070042
:10266000000006006044b8006055b8000402540041
:1026700085825c0006035d0087835d000000060024
:10268000a4b79f00b5b79f00c6b79f00d7b79f00fc
:1026900000000600e00f5000e08f5800e00f5900e6
:1026a000e08f5900000006006044b8006055b80093
:1026b0000000540081805c0002015d0083815d00a8
:1026c00000000600e00f5200e08f5a00e00f5b00b0
:1026d000e08f5b00000006006022b8006033b800a5
:1026e0000000520081805a0002015b0083815b0080
:1026f000000006000440e10005c8e10006d0e1004a
:1027000007d8e100000006004f09de008281710059
:10271000b3b79f004f01de008180400082807000cf
:10272000a1b79f008fb097004f09de000000400066
:102730000200700090b79f007fa897004f01de0055
:10274000818040008280700081b79f000d000700eb
:102750004f3ade000000400004007000f0af9f0020
:10276000080007000402420085824a0006034b006d
:1027700087834b00c2ff07000802be000a03be00a9
:10278000000006002fb29700bfb297004fb397002a
:10279000dfb3970000000600421188000011880096
:0827a000111188000000060081
:020000040000fa
:1027a800256400003a250000643a00002564000012
:0427b800000000001d
:020000040000fa
:1027bc000000fa0062002000014020000000280008
:1027cc00f2ff070000802e003100200029f70700df
:1027dc000080fa00000006000200fa00004f7800aa
:1027ec00010037000000000023c2bf0062406000ff
:1027fc000004e000fbff3a001e80fb002011880063
:10280c00010037000000000023c2bf0061406000df
:10281c000004e000fbff32000080fa00000006001c
:10282c000600fa0010079800414798000040eb00a2
:10283c00004f7800070037001e80fb0080007800f6
:10284c001e0090000080400010407800e2ff07005e
:10285c001e4fe8004e4090009e4f1000f6ff3900ce
:10286c000080fa00000006000200fa00004f780019
:10287c00c0c7b300d8ff07001e407800d6ff070082
:10288c000080fa00000006000000fa00c0c7b30088
:10289c00d1ff07000040eb00cfff07000080fa00db
:1028ac00000006000200fa00000f7800c0c7b30059
:1028bc00c9ff070010c0b300c7ff07001e00780057
:1028cc00c5ff07000080fa00000006000200fa00b5
:1028dc00000f7800c0c7b300bfff070020c0b300d3
:1028ec00bdff07001e007800bbff07000080fa0048
:1028fc00000006000800fa00000f7800110798008d
:10290c002207980033079800c0c7b300b2ff070036
:10291c0030c0b300b0ff07001e007800aeff070008
:10292c001e009000acff07002e009000aaff0700cd
:10293c003e009000a8ff07000080fa00000006008f
:10294c000000fa00c0c7b300a3ff070040c0b300eb
:10295c00a1ff07000080fa00000006000800fa0042
:10296c00000f780011079800220798003307980091
:10297c00c0c7b30098ff070050c0b30096ff070014
:10298c001e00780094ff07001e00900092ff0700c5
:10299c002e00900090ff07003e0090008eff070075
:1029ac000080fa00000006000000fa00c0c7b30067
:1029bc0089ff070060c0b30087ff07000080fa00a2
:1029cc00000006000200fa00000f78001e00e00074
:1029dc0002003c0010002000000f78006000200076
:1029ec009e0f10000200340060002000000f7800e1
:1029fc00c0c7b30078ff070070c0b30076ff0700b4
:102a0c001e00780074ff07000080fa00000006002a
:102a1c000000fa00c0c7b3006fff070080c0b3000e
:102a2c006dff07000080fa00000006000200fa00ab
:102a3c00000f7800c0c7b30067ff0700a0c0b30049
:102a4c0065ff07001e00780063ff07000080fa0096
:102a5c00000006000800fa00000f7800110798002b
:102a6c002207980033079800c0c7b3005aff07002d
:102a7c00b0c0b30058ff07001e00780056ff0700d7
:102a8c001e00900054ff07002e00900052ff07001c
:102a9c003e00900050ff07000080fa000000060086
:102aac000a00fa00000f780011079800220798001e
:102abc003307980044079800c0c7b30046ff0700cf
:102acc00c0c0b30044ff07001e00780042ff07009f
:102adc001e00900040ff07002e0090003eff0700f4
:102aec003e0090003cff07004e0090003aff0700ac
:102afc000080fa00000006000a00fa001007980097
:102b0c00210798003207980043079800c0c7b3000c
:102b1c0031ff0700d0c0b3002fff07001e0090004c
:102b2c002dff07002e0090002bff07003e009000a9
:102b3c0029ff07000000eb00000f780007003700aa
:102b4c001e007800800078004e009000008040004d
:102b5c001040780020ff07001e0fe800f001200055
:102b6c009e0f1000f6ff34000080fa0000000600f3
:102b7c000a00fa00000f780011079800220798004d
:102b8c003307980044079800c0c7b30012ff070032
:102b9c00f0c0b30010ff07001e0078000eff070006
:102bac001e0090000cff07002e0090000aff07008b
:102bbc003e00900008ff07004e00900006ff070043
:102bcc000080fa00000006000600fa00000f7800f2
:102bdc001107980022079800c0c7b300fefe07003b
:102bec0000c1b300fcfe0700000820009e0f10007f
:102bfc000300340000c8b300f7fe070007003700dd
:102c0c001e00e00003003d000040eb00f2fe070058
:102c1c00020037001e007800effe07009e009000b7
:102c2c0000042000808f50000300340000c4b30067
:102c3c00e9fe0700080037001e0090000000e000cd
:102c4c0003003d000040eb00e3fe070002003700ec
:102c5c001e009000e0fe07002e009000e10f5000d7
:102c6c00060032002e0090000000e000030032004d
:102c7c0010c0b300d8fe0700020037002e009000f1
:102c8c00d5fe07000080fa00000006000a00fa00da
:102c9c00000f78001107980022079800330798005e
:102cac00044f9800c0c7b300cbfe070020c1b3008f
:102cbc00c9fe07001e007800c7fe07001e0090002a
:102ccc00c5fe07002e009000c3fe07003e009000da
:102cdc00c1fe07000e489000bffe07000080fa00fe
:102cec00000006000000fa00c0c7b300bafe0700df
:102cfc0040c1b300b8fe07000080fa0000000600d7
:102d0c000000fa00c0c7b300b3fe070050c1b30007
:102d1c00b1fe07000080fa00000006000e00fa0069
:102d2c001007980021079800320798004307980075
:102d3c005407980065079800c0c7b300a6fe0700ab
:102d4c0060c1b300a4fe07001e009000a2fe0700a5
:102d5c002e009000a0fe07003e0090009efe070093
:102d6c004e0090009cfe07005e0090009afe07004b
:102d7c00ce0090005e0090000088b9008200200018
:102d8c00110009000200d800000f78000000eb00d1
:102d9c0010079800090037001e0090008000780092
:102dac006e00900000804000104078008afe070002
:102dbc001e0090000000e800100798001e00900014
:102dcc009e0f5000f4ff35000080fa000000060052
:102ddc000400fa00000f780011079800c0c7b30078
:102dec007dfe070080c1b3007bfe07001e0078004b
:102dfc0079fe0700c0c7b30077fe070090c1b3008f
:102e0c0075fe07001e00900073fe07000080fa009c
:102e1c00000006000400fa00100798001e00900045
:102e2c00e80f5000030034008000200010079800c9
:102e3c000c0037001e0090000000e00003003c0076
:102e4c001000200010079800060037001e009000ac
:102e5c004300dd00680f50009e0078001000200039
:102e6c00dbff07000080fa00000006000800fa00f3
:102e7c0010002000804688004dfe07000040eb004b
:102e8c0079fe0700c082a900c0a2a900c122a90036
:102e9c00c142a9009680a900d902a8008220a800ee
:102eac002a83a8008220a9009680a8000000eb00cd
:102ebc00100798000000eb00200798000000eb00c2
:102ecc003007980011e1a9001021a90010c1a90038
:102edc000621ef0081088000000320000100700033
:102eec008008880084e0a90094e0a9001003200069
:102efc006008880011e1a80094e0a80042c7bf0058
:102f0c000014a0000081fb0060042000710520006b
:102f1c002374200080497800814978008249780028
:102f2c0005e1a9000421a8000441a90021088000a2
:102f3c00f0fc2f0000806000200888000021ef00ca
:102f4c00f0ff27001008880021058000f0ff280002
:102f5c000080600000c0a000200588008460a900eb
:102f6c009460a80005e1a8000000eb00000f7800b9
:102f7c00110020001e8f50001e0078000000e000a1
:102f8c0007003200c342a80000000000000000004f
:102f9c0000802b008108200036f507000600370062
:102fac00c342a900000000000000000000802900be
:102fbc00a10320002ff5070080c1b3002afe0700f3
:102fcc000040eb0004fe070090c1b30026fe070092
:102fdc000040eb0000fe070001408000803e200016
:102fec0000017800110009008280d8008000fd00eb
:102ffc008001780000408000c300de00500c2200ed
:10300c000008b8004409de00908828000010b800c1
:10301c004508de00c10320000180b90000007800e3
:10302c0000005100044080001100200002a62e0078
:10303c00820f5200010031008000eb00831f7800ea
:10304c00801f7800811f7800403d2900801f780088
:10305c00b5f50700e887570000832000baf5070094
:10306c0080c1b30000fe07000040eb00dafd070052
:10307c0090c1b300fcfd07000040eb00d6fd07003b
:04308c00bbff37004f
:020000040000fa
:10309000000800000800000000000000d008000048
:1030a000020000000200000001000000080800000b
:1030b000880000000200000001000000002e08004f
:1030c0002f082e00082e08002e082e00081e0800cb
:1030d00000000000000000000000000000000000f0
:1030e00000000000000000000000000000020800d6
:1030f00001015600085708005608560008560800f7
:103100005608460008000000000000000000000013
:1031100000000000000000000000000000000000af
:1031200000000200080202007e087f00087e0800fe
:103130007e087e00087e08006e0800000000000087
:10314000000000000000000000000000000000007f
:1031500000000000000000000808300008580800c7
:10316000000000000000000000000000000000005f
:10317000b20800001a00000002000000686a6c003b
:10318000747a4c00000001000002000004000800f6
:1031900000100000000020002b2d23003000000054
:1031a000d20800000200000002000000040000003d
:1031b000cc0800000400000000000000d40800005b
:1031c0000200000000000000900800002200000043
:1031d0000200000030313200333435003637380019
:1031e000394142004344450046003000313233004b
:1031f0003435360037383900616263006465660033
:1032000000000000d60800000200000000000000de
:0432100000000000ba
:020000040000fa
:0200000401f009
:04000800ffffff00f7
:020000040000fa
:0200000401f009
:04000c00a30000004d
:020000040000fa
:0200000401f009
:04001000c500000027
:020000040000fa
:0200000401f009
:040014005f00000089
:00000001FF
